{
  "contractName": "FundMe",
  "abi": [
    {
      "inputs": [
        {
          "internalType": "address",
          "name": "priceFeed",
          "type": "address"
        }
      ],
      "stateMutability": "nonpayable",
      "type": "constructor"
    },
    {
      "inputs": [],
      "name": "FundMe__NotOwner",
      "type": "error"
    },
    {
      "inputs": [],
      "name": "MINIMUM_USD",
      "outputs": [
        {
          "internalType": "uint256",
          "name": "",
          "type": "uint256"
        }
      ],
      "stateMutability": "view",
      "type": "function",
      "constant": true
    },
    {
      "inputs": [],
      "name": "fund",
      "outputs": [],
      "stateMutability": "payable",
      "type": "function",
      "payable": true
    },
    {
      "inputs": [],
      "name": "withdraw",
      "outputs": [],
      "stateMutability": "nonpayable",
      "type": "function"
    },
    {
      "inputs": [],
      "name": "cheaperWithdraw",
      "outputs": [],
      "stateMutability": "nonpayable",
      "type": "function"
    },
    {
      "inputs": [
        {
          "internalType": "address",
          "name": "fundingAddress",
          "type": "address"
        }
      ],
      "name": "getAddressToAmountFunded",
      "outputs": [
        {
          "internalType": "uint256",
          "name": "",
          "type": "uint256"
        }
      ],
      "stateMutability": "view",
      "type": "function",
      "constant": true
    },
    {
      "inputs": [],
      "name": "getVersion",
      "outputs": [
        {
          "internalType": "uint256",
          "name": "",
          "type": "uint256"
        }
      ],
      "stateMutability": "view",
      "type": "function",
      "constant": true
    },
    {
      "inputs": [
        {
          "internalType": "uint256",
          "name": "index",
          "type": "uint256"
        }
      ],
      "name": "getFunder",
      "outputs": [
        {
          "internalType": "address",
          "name": "",
          "type": "address"
        }
      ],
      "stateMutability": "view",
      "type": "function",
      "constant": true
    },
    {
      "inputs": [],
      "name": "getOwner",
      "outputs": [
        {
          "internalType": "address",
          "name": "",
          "type": "address"
        }
      ],
      "stateMutability": "view",
      "type": "function",
      "constant": true
    },
    {
      "inputs": [],
      "name": "getPriceFeed",
      "outputs": [
        {
          "internalType": "contract AggregatorV3Interface",
          "name": "",
          "type": "address"
        }
      ],
      "stateMutability": "view",
      "type": "function",
      "constant": true
    }
  ],
  "bytecode": "0x60a060405234801561000f575f80fd5b50604051610e10380380610e1083398181016040528101906100319190610109565b8060025f6101000a81548173ffffffffffffffffffffffffffffffffffffffff021916908373ffffffffffffffffffffffffffffffffffffffff1602179055503373ffffffffffffffffffffffffffffffffffffffff1660808173ffffffffffffffffffffffffffffffffffffffff168152505050610134565b5f80fd5b5f73ffffffffffffffffffffffffffffffffffffffff82169050919050565b5f6100d8826100af565b9050919050565b6100e8816100ce565b81146100f2575f80fd5b50565b5f81519050610103816100df565b92915050565b5f6020828403121561011e5761011d6100ab565b5b5f61012b848285016100f5565b91505092915050565b608051610ca86101685f395f81816102bb01528181610442015281816104e3015281816105e501526107cf0152610ca85ff3fe608060405260043610610085575f3560e01c8063893d20e811610058578063893d20e81461012f5780639e87a5cd14610159578063b60d428814610183578063be2693f01461018d578063d7b4750c146101a357610085565b80630343fb25146100895780630d8e6e2c146100c55780633ccfd60b146100ef5780636b69a59214610105575b5f80fd5b348015610094575f80fd5b506100af60048036038101906100aa91906109a4565b6101df565b6040516100bc91906109e7565b60405180910390f35b3480156100d0575f80fd5b506100d9610225565b6040516100e691906109e7565b60405180910390f35b3480156100fa575f80fd5b506101036102b9565b005b348015610110575f80fd5b506101196104d3565b60405161012691906109e7565b60405180910390f35b34801561013a575f80fd5b506101436104e0565b6040516101509190610a0f565b60405180910390f35b348015610164575f80fd5b5061016d610507565b60405161017a9190610a83565b60405180910390f35b61018b61052f565b005b348015610198575f80fd5b506101a16105e3565b005b3480156101ae575f80fd5b506101c960048036038101906101c49190610ac6565b610861565b6040516101d69190610a0f565b60405180910390f35b5f60015f8373ffffffffffffffffffffffffffffffffffffffff1673ffffffffffffffffffffffffffffffffffffffff1681526020019081526020015f20549050919050565b5f60025f9054906101000a900473ffffffffffffffffffffffffffffffffffffffff1673ffffffffffffffffffffffffffffffffffffffff166354fd4d506040518163ffffffff1660e01b8152600401602060405180830381865afa158015610290573d5f803e3d5ffd5b505050506040513d601f19601f820116820180604052508101906102b49190610b05565b905090565b7f000000000000000000000000000000000000000000000000000000000000000073ffffffffffffffffffffffffffffffffffffffff163373ffffffffffffffffffffffffffffffffffffffff161461033e576040517f579610db00000000000000000000000000000000000000000000000000000000815260040160405180910390fd5b5f5b5f805490508110156103e0575f8082815481106103605761035f610b30565b5b905f5260205f20015f9054906101000a900473ffffffffffffffffffffffffffffffffffffffff1690505f60015f8373ffffffffffffffffffffffffffffffffffffffff1673ffffffffffffffffffffffffffffffffffffffff1681526020019081526020015f20819055505080806103d890610b8a565b915050610340565b505f67ffffffffffffffff8111156103fb576103fa610bd1565b5b6040519080825280602002602001820160405280156104295781602001602082028036833780820191505090505b505f908051906020019061043e9291906108a4565b505f7f000000000000000000000000000000000000000000000000000000000000000073ffffffffffffffffffffffffffffffffffffffff164760405161048490610c2b565b5f6040518083038185875af1925050503d805f81146104be576040519150601f19603f3d011682016040523d82523d5f602084013e6104c3565b606091505b50509050806104d0575f80fd5b50565b6802b5e3af16b188000081565b5f7f0000000000000000000000000000000000000000000000000000000000000000905090565b5f60025f9054906101000a900473ffffffffffffffffffffffffffffffffffffffff16905090565b3460015f3373ffffffffffffffffffffffffffffffffffffffff1673ffffffffffffffffffffffffffffffffffffffff1681526020019081526020015f205f82825461057b9190610c3f565b925050819055505f33908060018154018082558091505060019003905f5260205f20015f9091909190916101000a81548173ffffffffffffffffffffffffffffffffffffffff021916908373ffffffffffffffffffffffffffffffffffffffff160217905550565b7f000000000000000000000000000000000000000000000000000000000000000073ffffffffffffffffffffffffffffffffffffffff163373ffffffffffffffffffffffffffffffffffffffff1614610668576040517f579610db00000000000000000000000000000000000000000000000000000000815260040160405180910390fd5b5f808054806020026020016040519081016040528092919081815260200182805480156106e757602002820191905f5260205f20905b815f9054906101000a900473ffffffffffffffffffffffffffffffffffffffff1673ffffffffffffffffffffffffffffffffffffffff168152602001906001019080831161069e575b505050505090505f5b815181101561076d575f82828151811061070d5761070c610b30565b5b602002602001015190505f60015f8373ffffffffffffffffffffffffffffffffffffffff1673ffffffffffffffffffffffffffffffffffffffff1681526020019081526020015f208190555050808061076590610b8a565b9150506106f0565b505f67ffffffffffffffff81111561078857610787610bd1565b5b6040519080825280602002602001820160405280156107b65781602001602082028036833780820191505090505b505f90805190602001906107cb9291906108a4565b505f7f000000000000000000000000000000000000000000000000000000000000000073ffffffffffffffffffffffffffffffffffffffff164760405161081190610c2b565b5f6040518083038185875af1925050503d805f811461084b576040519150601f19603f3d011682016040523d82523d5f602084013e610850565b606091505b505090508061085d575f80fd5b5050565b5f80828154811061087557610874610b30565b5b905f5260205f20015f9054906101000a900473ffffffffffffffffffffffffffffffffffffffff169050919050565b828054828255905f5260205f2090810192821561091a579160200282015b82811115610919578251825f6101000a81548173ffffffffffffffffffffffffffffffffffffffff021916908373ffffffffffffffffffffffffffffffffffffffff160217905550916020019190600101906108c2565b5b509050610927919061092b565b5090565b5b80821115610942575f815f90555060010161092c565b5090565b5f80fd5b5f73ffffffffffffffffffffffffffffffffffffffff82169050919050565b5f6109738261094a565b9050919050565b61098381610969565b811461098d575f80fd5b50565b5f8135905061099e8161097a565b92915050565b5f602082840312156109b9576109b8610946565b5b5f6109c684828501610990565b91505092915050565b5f819050919050565b6109e1816109cf565b82525050565b5f6020820190506109fa5f8301846109d8565b92915050565b610a0981610969565b82525050565b5f602082019050610a225f830184610a00565b92915050565b5f819050919050565b5f610a4b610a46610a418461094a565b610a28565b61094a565b9050919050565b5f610a5c82610a31565b9050919050565b5f610a6d82610a52565b9050919050565b610a7d81610a63565b82525050565b5f602082019050610a965f830184610a74565b92915050565b610aa5816109cf565b8114610aaf575f80fd5b50565b5f81359050610ac081610a9c565b92915050565b5f60208284031215610adb57610ada610946565b5b5f610ae884828501610ab2565b91505092915050565b5f81519050610aff81610a9c565b92915050565b5f60208284031215610b1a57610b19610946565b5b5f610b2784828501610af1565b91505092915050565b7f4e487b71000000000000000000000000000000000000000000000000000000005f52603260045260245ffd5b7f4e487b71000000000000000000000000000000000000000000000000000000005f52601160045260245ffd5b5f610b94826109cf565b91507fffffffffffffffffffffffffffffffffffffffffffffffffffffffffffffffff8203610bc657610bc5610b5d565b5b600182019050919050565b7f4e487b71000000000000000000000000000000000000000000000000000000005f52604160045260245ffd5b5f81905092915050565b50565b5f610c165f83610bfe565b9150610c2182610c08565b5f82019050919050565b5f610c3582610c0b565b9150819050919050565b5f610c49826109cf565b9150610c54836109cf565b9250828201905080821115610c6c57610c6b610b5d565b5b9291505056fea26469706673582212205ebaeb03b225e887f900d10a5ccbb3d8a51f00462ceb54cb335ff45dc559fa1364736f6c63430008150033",
  "immutableReferences": {
    "64": [
      {
        "length": 32,
        "start": 699
      },
      {
        "length": 32,
        "start": 1090
      },
      {
        "length": 32,
        "start": 1251
      },
      {
        "length": 32,
        "start": 1509
      },
      {
        "length": 32,
        "start": 1999
      }
    ]
  },
  "source": "// SPDX-License-Identifier: MIT\r\n// 1. Pragma\r\npragma solidity ^0.8.7;\r\n// 2. Imports\r\nimport \"@chainlink/contracts/src/v0.8/shared/interfaces/AggregatorV3Interface.sol\";\r\nimport \"./PriceConverter.sol\";\r\n\r\n// 3. Interfaces, Libraries, Contracts\r\nerror FundMe__NotOwner();\r\n\r\n/**@title A sample Funding Contract\r\n * @author Patrick Collins\r\n * @notice This contract is for creating a sample funding contract\r\n * @dev This implements price feeds as our library\r\n */\r\ncontract FundMe {\r\n    // Type Declarations\r\n    using PriceConverter for uint256;\r\n\r\n    // State variables\r\n    uint256 public constant MINIMUM_USD = 50 * 10**18;\r\n    address private immutable i_owner;\r\n    address[] private s_funders;\r\n    mapping(address => uint256) private s_addressToAmountFunded;\r\n    AggregatorV3Interface private s_priceFeed;\r\n\r\n    // Events (we have none!)\r\n\r\n    // Modifiers\r\n    modifier onlyOwner() {\r\n        // require(msg.sender == i_owner);\r\n        if (msg.sender != i_owner) revert FundMe__NotOwner();\r\n        _;\r\n    }\r\n\r\n    // Functions Order:\r\n    //// constructor\r\n    //// receive\r\n    //// fallback\r\n    //// external\r\n    //// public\r\n    //// internal\r\n    //// private\r\n    //// view / pure\r\n\r\n    constructor(address priceFeed) {\r\n        s_priceFeed = AggregatorV3Interface(priceFeed);\r\n        i_owner = msg.sender;\r\n    }\r\n\r\n    /// @notice Funds our contract based on the ETH/USD price\r\n    function fund() public payable {\r\n        //require(\r\n        //    msg.value.getConversionRate(s_priceFeed) >= MINIMUM_USD,\r\n        //    \"You need to spend more ETH!\"\r\n        //);\r\n        // require(PriceConverter.getConversionRate(msg.value) >= MINIMUM_USD, \"You need to spend more ETH!\");\r\n        s_addressToAmountFunded[msg.sender] += msg.value;\r\n        s_funders.push(msg.sender);\r\n    }\r\n\r\n    function withdraw() public onlyOwner {\r\n        for (\r\n            uint256 funderIndex = 0;\r\n            funderIndex < s_funders.length;\r\n            funderIndex++\r\n        ) {\r\n            address funder = s_funders[funderIndex];\r\n            s_addressToAmountFunded[funder] = 0;\r\n        }\r\n        s_funders = new address[](0);\r\n        // Transfer vs call vs Send\r\n        // payable(msg.sender).transfer(address(this).balance);\r\n        (bool success, ) = i_owner.call{value: address(this).balance}(\"\");\r\n        require(success);\r\n    }\r\n\r\n    function cheaperWithdraw() public onlyOwner {\r\n        address[] memory funders = s_funders;\r\n        // mappings can't be in memory, sorry!\r\n        for (\r\n            uint256 funderIndex = 0;\r\n            funderIndex < funders.length;\r\n            funderIndex++\r\n        ) {\r\n            address funder = funders[funderIndex];\r\n            s_addressToAmountFunded[funder] = 0;\r\n        }\r\n        s_funders = new address[](0);\r\n        // payable(msg.sender).transfer(address(this).balance);\r\n        (bool success, ) = i_owner.call{value: address(this).balance}(\"\");\r\n        require(success);\r\n    }\r\n\r\n    /** @notice Gets the amount that an address has funded\r\n     *  @param fundingAddress the address of the funder\r\n     *  @return the amount funded\r\n     */\r\n    function getAddressToAmountFunded(address fundingAddress)\r\n        public\r\n        view\r\n        returns (uint256)\r\n    {\r\n        return s_addressToAmountFunded[fundingAddress];\r\n    }\r\n\r\n    function getVersion() public view returns (uint256) {\r\n        return s_priceFeed.version();\r\n    }\r\n\r\n    function getFunder(uint256 index) public view returns (address) {\r\n        return s_funders[index];\r\n    }\r\n\r\n    function getOwner() public view returns (address) {\r\n        return i_owner;\r\n    }\r\n\r\n    function getPriceFeed() public view returns (AggregatorV3Interface) {\r\n        return s_priceFeed;\r\n    }\r\n}",
  "sourcePath": "C:\\Users\\Christian Mariscal\\blockchain\\fundMeDapp\\backEnd\\contracts\\FundMe.sol",
  "compiler": {
    "name": "solc",
    "version": "0.8.21+commit.d9974bed.Emscripten.clang"
  },
  "schemaVersion": "3.4.16",
  "updatedAt": "2024-05-15T18:30:06.530Z",
  "networkType": "ethereum",
  "devdoc": {
    "author": "Patrick Collins",
    "details": "This implements price feeds as our library",
    "kind": "dev",
    "methods": {
      "getAddressToAmountFunded(address)": {
        "params": {
          "fundingAddress": "the address of the funder"
        },
        "returns": {
          "_0": "the amount funded"
        }
      }
    },
    "title": "A sample Funding Contract",
    "version": 1
  },
  "userdoc": {
    "kind": "user",
    "methods": {
      "fund()": {
        "notice": "Funds our contract based on the ETH/USD price"
      },
      "getAddressToAmountFunded(address)": {
        "notice": "Gets the amount that an address has funded"
      }
    },
    "notice": "This contract is for creating a sample funding contract",
    "version": 1
  }
}